{
  "contractName": "CocoToken",
  "abi": [
    {
      "inputs": [
        {
          "internalType": "uint256",
          "name": "cap",
          "type": "uint256"
        },
        {
          "internalType": "uint256",
          "name": "reward",
          "type": "uint256"
        }
      ],
      "stateMutability": "nonpayable",
      "type": "constructor"
    },
    {
      "inputs": [
        {
          "internalType": "uint256",
          "name": "increasedSupply",
          "type": "uint256"
        },
        {
          "internalType": "uint256",
          "name": "cap",
          "type": "uint256"
        }
      ],
      "name": "ERC20ExceededCap",
      "type": "error"
    },
    {
      "inputs": [
        {
          "internalType": "address",
          "name": "spender",
          "type": "address"
        },
        {
          "internalType": "uint256",
          "name": "allowance",
          "type": "uint256"
        },
        {
          "internalType": "uint256",
          "name": "needed",
          "type": "uint256"
        }
      ],
      "name": "ERC20InsufficientAllowance",
      "type": "error"
    },
    {
      "inputs": [
        {
          "internalType": "address",
          "name": "sender",
          "type": "address"
        },
        {
          "internalType": "uint256",
          "name": "balance",
          "type": "uint256"
        },
        {
          "internalType": "uint256",
          "name": "needed",
          "type": "uint256"
        }
      ],
      "name": "ERC20InsufficientBalance",
      "type": "error"
    },
    {
      "inputs": [
        {
          "internalType": "address",
          "name": "approver",
          "type": "address"
        }
      ],
      "name": "ERC20InvalidApprover",
      "type": "error"
    },
    {
      "inputs": [
        {
          "internalType": "uint256",
          "name": "cap",
          "type": "uint256"
        }
      ],
      "name": "ERC20InvalidCap",
      "type": "error"
    },
    {
      "inputs": [
        {
          "internalType": "address",
          "name": "receiver",
          "type": "address"
        }
      ],
      "name": "ERC20InvalidReceiver",
      "type": "error"
    },
    {
      "inputs": [
        {
          "internalType": "address",
          "name": "sender",
          "type": "address"
        }
      ],
      "name": "ERC20InvalidSender",
      "type": "error"
    },
    {
      "inputs": [
        {
          "internalType": "address",
          "name": "spender",
          "type": "address"
        }
      ],
      "name": "ERC20InvalidSpender",
      "type": "error"
    },
    {
      "anonymous": false,
      "inputs": [
        {
          "indexed": true,
          "internalType": "address",
          "name": "owner",
          "type": "address"
        },
        {
          "indexed": true,
          "internalType": "address",
          "name": "spender",
          "type": "address"
        },
        {
          "indexed": false,
          "internalType": "uint256",
          "name": "value",
          "type": "uint256"
        }
      ],
      "name": "Approval",
      "type": "event"
    },
    {
      "anonymous": false,
      "inputs": [
        {
          "indexed": true,
          "internalType": "address",
          "name": "from",
          "type": "address"
        },
        {
          "indexed": true,
          "internalType": "address",
          "name": "to",
          "type": "address"
        },
        {
          "indexed": false,
          "internalType": "uint256",
          "name": "value",
          "type": "uint256"
        }
      ],
      "name": "Transfer",
      "type": "event"
    },
    {
      "inputs": [
        {
          "internalType": "address",
          "name": "owner",
          "type": "address"
        },
        {
          "internalType": "address",
          "name": "spender",
          "type": "address"
        }
      ],
      "name": "allowance",
      "outputs": [
        {
          "internalType": "uint256",
          "name": "",
          "type": "uint256"
        }
      ],
      "stateMutability": "view",
      "type": "function"
    },
    {
      "inputs": [
        {
          "internalType": "address",
          "name": "spender",
          "type": "address"
        },
        {
          "internalType": "uint256",
          "name": "value",
          "type": "uint256"
        }
      ],
      "name": "approve",
      "outputs": [
        {
          "internalType": "bool",
          "name": "",
          "type": "bool"
        }
      ],
      "stateMutability": "nonpayable",
      "type": "function"
    },
    {
      "inputs": [
        {
          "internalType": "address",
          "name": "account",
          "type": "address"
        }
      ],
      "name": "balanceOf",
      "outputs": [
        {
          "internalType": "uint256",
          "name": "",
          "type": "uint256"
        }
      ],
      "stateMutability": "view",
      "type": "function"
    },
    {
      "inputs": [],
      "name": "blockReward",
      "outputs": [
        {
          "internalType": "uint256",
          "name": "",
          "type": "uint256"
        }
      ],
      "stateMutability": "view",
      "type": "function"
    },
    {
      "inputs": [
        {
          "internalType": "uint256",
          "name": "value",
          "type": "uint256"
        }
      ],
      "name": "burn",
      "outputs": [],
      "stateMutability": "nonpayable",
      "type": "function"
    },
    {
      "inputs": [
        {
          "internalType": "address",
          "name": "account",
          "type": "address"
        },
        {
          "internalType": "uint256",
          "name": "value",
          "type": "uint256"
        }
      ],
      "name": "burnFrom",
      "outputs": [],
      "stateMutability": "nonpayable",
      "type": "function"
    },
    {
      "inputs": [],
      "name": "cap",
      "outputs": [
        {
          "internalType": "uint256",
          "name": "",
          "type": "uint256"
        }
      ],
      "stateMutability": "view",
      "type": "function"
    },
    {
      "inputs": [],
      "name": "decimals",
      "outputs": [
        {
          "internalType": "uint8",
          "name": "",
          "type": "uint8"
        }
      ],
      "stateMutability": "view",
      "type": "function"
    },
    {
      "inputs": [],
      "name": "name",
      "outputs": [
        {
          "internalType": "string",
          "name": "",
          "type": "string"
        }
      ],
      "stateMutability": "view",
      "type": "function"
    },
    {
      "inputs": [],
      "name": "owner",
      "outputs": [
        {
          "internalType": "address payable",
          "name": "",
          "type": "address"
        }
      ],
      "stateMutability": "view",
      "type": "function"
    },
    {
      "inputs": [],
      "name": "symbol",
      "outputs": [
        {
          "internalType": "string",
          "name": "",
          "type": "string"
        }
      ],
      "stateMutability": "view",
      "type": "function"
    },
    {
      "inputs": [],
      "name": "totalSupply",
      "outputs": [
        {
          "internalType": "uint256",
          "name": "",
          "type": "uint256"
        }
      ],
      "stateMutability": "view",
      "type": "function"
    },
    {
      "inputs": [
        {
          "internalType": "address",
          "name": "to",
          "type": "address"
        },
        {
          "internalType": "uint256",
          "name": "value",
          "type": "uint256"
        }
      ],
      "name": "transfer",
      "outputs": [
        {
          "internalType": "bool",
          "name": "",
          "type": "bool"
        }
      ],
      "stateMutability": "nonpayable",
      "type": "function"
    },
    {
      "inputs": [
        {
          "internalType": "address",
          "name": "from",
          "type": "address"
        },
        {
          "internalType": "address",
          "name": "to",
          "type": "address"
        },
        {
          "internalType": "uint256",
          "name": "value",
          "type": "uint256"
        }
      ],
      "name": "transferFrom",
      "outputs": [
        {
          "internalType": "bool",
          "name": "",
          "type": "bool"
        }
      ],
      "stateMutability": "nonpayable",
      "type": "function"
    },
    {
      "inputs": [
        {
          "internalType": "uint256",
          "name": "reward",
          "type": "uint256"
        }
      ],
      "name": "setBlockReward",
      "outputs": [],
      "stateMutability": "nonpayable",
      "type": "function"
    },
    {
      "inputs": [],
      "name": "destroy",
      "outputs": [],
      "stateMutability": "nonpayable",
      "type": "function"
    }
  ],
  "bytecode": "0x60a060405234801562000010575f80fd5b5060405162002473380380620024738339818101604052810190620000369190620006c7565b620000466200021d60201b60201c565b600a62000054919062000895565b82620000619190620008e5565b6040518060400160405280600981526020017f436f636f546f6b656e00000000000000000000000000000000000000000000008152506040518060400160405280600381526020017f43435400000000000000000000000000000000000000000000000000000000008152508160039081620000de919062000b8a565b508060049081620000f0919062000b8a565b5050505f81036200013a575f6040517f392e1e2700000000000000000000000000000000000000000000000000000000815260040162000131919062000caf565b60405180910390fd5b8060808181525050503360055f6101000a81548173ffffffffffffffffffffffffffffffffffffffff021916908373ffffffffffffffffffffffffffffffffffffffff160217905550620001936200021d60201b60201c565b600a620001a1919062000895565b81620001ae9190620008e5565b6006819055506200021560055f9054906101000a900473ffffffffffffffffffffffffffffffffffffffff16620001ea6200021d60201b60201c565b600a620001f8919062000895565b63042c1d80620002099190620008e5565b6200022560201b60201c565b505062000df4565b5f6012905090565b5f73ffffffffffffffffffffffffffffffffffffffff168273ffffffffffffffffffffffffffffffffffffffff160362000298575f6040517fec442f050000000000000000000000000000000000000000000000000000000081526004016200028f919062000d0d565b60405180910390fd5b620002ab5f8383620002af60201b60201c565b5050565b5f73ffffffffffffffffffffffffffffffffffffffff168373ffffffffffffffffffffffffffffffffffffffff16141580156200031857505f73ffffffffffffffffffffffffffffffffffffffff164173ffffffffffffffffffffffffffffffffffffffff1614155b80156200035157504173ffffffffffffffffffffffffffffffffffffffff168273ffffffffffffffffffffffffffffffffffffffff1614155b156200036857620003676200038060201b60201c565b5b6200037b8383836200039660201b60201c565b505050565b62000394416006546200022560201b60201c565b565b620003a98383836200045560201b60201c565b5f73ffffffffffffffffffffffffffffffffffffffff168373ffffffffffffffffffffffffffffffffffffffff160362000450575f620003ee6200067960201b60201c565b90505f620004016200068260201b60201c565b9050818111156200044d5780826040517f9e79f8540000000000000000000000000000000000000000000000000000000081526004016200044492919062000d39565b60405180910390fd5b50505b505050565b5f73ffffffffffffffffffffffffffffffffffffffff168373ffffffffffffffffffffffffffffffffffffffff1603620004a9578060025f8282546200049c919062000d64565b925050819055506200057a565b5f805f8573ffffffffffffffffffffffffffffffffffffffff1673ffffffffffffffffffffffffffffffffffffffff1681526020019081526020015f205490508181101562000535578381836040517fe450d38c0000000000000000000000000000000000000000000000000000000081526004016200052c9392919062000d9e565b60405180910390fd5b8181035f808673ffffffffffffffffffffffffffffffffffffffff1673ffffffffffffffffffffffffffffffffffffffff1681526020019081526020015f2081905550505b5f73ffffffffffffffffffffffffffffffffffffffff168273ffffffffffffffffffffffffffffffffffffffff1603620005c3578060025f82825403925050819055506200060d565b805f808473ffffffffffffffffffffffffffffffffffffffff1673ffffffffffffffffffffffffffffffffffffffff1681526020019081526020015f205f82825401925050819055505b8173ffffffffffffffffffffffffffffffffffffffff168373ffffffffffffffffffffffffffffffffffffffff167fddf252ad1be2c89b69c2b068fc378daa952ba7f163c4a11628f55a4df523b3ef836040516200066c919062000dd9565b60405180910390a3505050565b5f608051905090565b5f600254905090565b5f80fd5b5f819050919050565b620006a3816200068f565b8114620006ae575f80fd5b50565b5f81519050620006c18162000698565b92915050565b5f8060408385031215620006e057620006df6200068b565b5b5f620006ef85828601620006b1565b92505060206200070285828601620006b1565b9150509250929050565b7f4e487b71000000000000000000000000000000000000000000000000000000005f52601160045260245ffd5b5f8160011c9050919050565b5f808291508390505b600185111562000796578086048111156200076e576200076d6200070c565b5b60018516156200077e5780820291505b80810290506200078e8562000739565b94506200074e565b94509492505050565b5f82620007b0576001905062000882565b81620007bf575f905062000882565b8160018114620007d85760028114620007e35762000819565b600191505062000882565b60ff841115620007f857620007f76200070c565b5b8360020a9150848211156200081257620008116200070c565b5b5062000882565b5060208310610133831016604e8410600b8410161715620008535782820a9050838111156200084d576200084c6200070c565b5b62000882565b62000862848484600162000745565b925090508184048111156200087c576200087b6200070c565b5b81810290505b9392505050565b5f60ff82169050919050565b5f620008a1826200068f565b9150620008ae8362000889565b9250620008dd7fffffffffffffffffffffffffffffffffffffffffffffffffffffffffffffffff84846200079f565b905092915050565b5f620008f1826200068f565b9150620008fe836200068f565b92508282026200090e816200068f565b915082820484148315176200092857620009276200070c565b5b5092915050565b5f81519050919050565b7f4e487b71000000000000000000000000000000000000000000000000000000005f52604160045260245ffd5b7f4e487b71000000000000000000000000000000000000000000000000000000005f52602260045260245ffd5b5f6002820490506001821680620009ab57607f821691505b602082108103620009c157620009c062000966565b5b50919050565b5f819050815f5260205f209050919050565b5f6020601f8301049050919050565b5f82821b905092915050565b5f6008830262000a257fffffffffffffffffffffffffffffffffffffffffffffffffffffffffffffffff82620009e8565b62000a318683620009e8565b95508019841693508086168417925050509392505050565b5f819050919050565b5f62000a7262000a6c62000a66846200068f565b62000a49565b6200068f565b9050919050565b5f819050919050565b62000a8d8362000a52565b62000aa562000a9c8262000a79565b848454620009f4565b825550505050565b5f90565b62000abb62000aad565b62000ac881848462000a82565b505050565b5b8181101562000aef5762000ae35f8262000ab1565b60018101905062000ace565b5050565b601f82111562000b3e5762000b0881620009c7565b62000b1384620009d9565b8101602085101562000b23578190505b62000b3b62000b3285620009d9565b83018262000acd565b50505b505050565b5f82821c905092915050565b5f62000b605f198460080262000b43565b1980831691505092915050565b5f62000b7a838362000b4f565b9150826002028217905092915050565b62000b95826200092f565b67ffffffffffffffff81111562000bb15762000bb062000939565b5b62000bbd825462000993565b62000bca82828562000af3565b5f60209050601f83116001811462000c00575f841562000beb578287015190505b62000bf7858262000b6d565b86555062000c66565b601f19841662000c1086620009c7565b5f5b8281101562000c395784890151825560018201915060208501945060208101905062000c12565b8683101562000c59578489015162000c55601f89168262000b4f565b8355505b6001600288020188555050505b505050505050565b5f819050919050565b5f62000c9762000c9162000c8b8462000c6e565b62000a49565b6200068f565b9050919050565b62000ca98162000c77565b82525050565b5f60208201905062000cc45f83018462000c9e565b92915050565b5f73ffffffffffffffffffffffffffffffffffffffff82169050919050565b5f62000cf58262000cca565b9050919050565b62000d078162000ce9565b82525050565b5f60208201905062000d225f83018462000cfc565b92915050565b62000d33816200068f565b82525050565b5f60408201905062000d4e5f83018562000d28565b62000d5d602083018462000d28565b9392505050565b5f62000d70826200068f565b915062000d7d836200068f565b925082820190508082111562000d985762000d976200070c565b5b92915050565b5f60608201905062000db35f83018662000cfc565b62000dc2602083018562000d28565b62000dd1604083018462000d28565b949350505050565b5f60208201905062000dee5f83018462000d28565b92915050565b60805161166662000e0d5f395f6104d301526116665ff3fe608060405234801561000f575f80fd5b50600436106100fe575f3560e01c806342966c68116100955780638da5cb5b116100645780638da5cb5b1461028657806395d89b41146102a4578063a9059cbb146102c2578063dd62ed3e146102f2576100fe565b806342966c681461021457806370a082311461023057806379cc67901461026057806383197ef01461027c576100fe565b80631a18e707116100d15780631a18e7071461018c57806323b872dd146101a8578063313ce567146101d8578063355274ea146101f6576100fe565b806306fdde0314610102578063095ea7b3146101205780630ac168a11461015057806318160ddd1461016e575b5f80fd5b61010a610322565b604051610117919061100c565b60405180910390f35b61013a600480360381019061013591906110bd565b6103b2565b6040516101479190611115565b60405180910390f35b6101586103d4565b604051610165919061113d565b60405180910390f35b6101766103da565b604051610183919061113d565b60405180910390f35b6101a660048036038101906101a19190611156565b6103e3565b005b6101c260048036038101906101bd9190611181565b61049a565b6040516101cf9190611115565b60405180910390f35b6101e06104c8565b6040516101ed91906111ec565b60405180910390f35b6101fe6104d0565b60405161020b919061113d565b60405180910390f35b61022e60048036038101906102299190611156565b6104f7565b005b61024a60048036038101906102459190611205565b61050b565b604051610257919061113d565b60405180910390f35b61027a600480360381019061027591906110bd565b610550565b005b610284610570565b005b61028e610639565b60405161029b9190611250565b60405180910390f35b6102ac61065e565b6040516102b9919061100c565b60405180910390f35b6102dc60048036038101906102d791906110bd565b6106ee565b6040516102e99190611115565b60405180910390f35b61030c60048036038101906103079190611269565b610710565b604051610319919061113d565b60405180910390f35b606060038054610331906112d4565b80601f016020809104026020016040519081016040528092919081815260200182805461035d906112d4565b80156103a85780601f1061037f576101008083540402835291602001916103a8565b820191905f5260205f20905b81548152906001019060200180831161038b57829003601f168201915b5050505050905090565b5f806103bc610792565b90506103c9818585610799565b600191505092915050565b60065481565b5f600254905090565b60055f9054906101000a900473ffffffffffffffffffffffffffffffffffffffff1673ffffffffffffffffffffffffffffffffffffffff163373ffffffffffffffffffffffffffffffffffffffff1614610472576040517f08c379a000000000000000000000000000000000000000000000000000000000815260040161046990611374565b60405180910390fd5b61047a6104c8565b600a61048691906114ee565b816104919190611538565b60068190555050565b5f806104a4610792565b90506104b18582856107ab565b6104bc85858561083d565b60019150509392505050565b5f6012905090565b5f7f0000000000000000000000000000000000000000000000000000000000000000905090565b610508610502610792565b8261092d565b50565b5f805f8373ffffffffffffffffffffffffffffffffffffffff1673ffffffffffffffffffffffffffffffffffffffff1681526020019081526020015f20549050919050565b6105628261055c610792565b836107ab565b61056c828261092d565b5050565b60055f9054906101000a900473ffffffffffffffffffffffffffffffffffffffff1673ffffffffffffffffffffffffffffffffffffffff163373ffffffffffffffffffffffffffffffffffffffff16146105ff576040517f08c379a00000000000000000000000000000000000000000000000000000000081526004016105f690611374565b60405180910390fd5b60055f9054906101000a900473ffffffffffffffffffffffffffffffffffffffff1673ffffffffffffffffffffffffffffffffffffffff16ff5b60055f9054906101000a900473ffffffffffffffffffffffffffffffffffffffff1681565b60606004805461066d906112d4565b80601f0160208091040260200160405190810160405280929190818152602001828054610699906112d4565b80156106e45780601f106106bb576101008083540402835291602001916106e4565b820191905f5260205f20905b8154815290600101906020018083116106c757829003601f168201915b5050505050905090565b5f806106f8610792565b905061070581858561083d565b600191505092915050565b5f60015f8473ffffffffffffffffffffffffffffffffffffffff1673ffffffffffffffffffffffffffffffffffffffff1681526020019081526020015f205f8373ffffffffffffffffffffffffffffffffffffffff1673ffffffffffffffffffffffffffffffffffffffff1681526020019081526020015f2054905092915050565b5f33905090565b6107a683838360016109ac565b505050565b5f6107b68484610710565b90507fffffffffffffffffffffffffffffffffffffffffffffffffffffffffffffffff81146108375781811015610828578281836040517ffb8f41b200000000000000000000000000000000000000000000000000000000815260040161081f93929190611588565b60405180910390fd5b61083684848484035f6109ac565b5b50505050565b5f73ffffffffffffffffffffffffffffffffffffffff168373ffffffffffffffffffffffffffffffffffffffff16036108ad575f6040517f96c6fd1e0000000000000000000000000000000000000000000000000000000081526004016108a491906115bd565b60405180910390fd5b5f73ffffffffffffffffffffffffffffffffffffffff168273ffffffffffffffffffffffffffffffffffffffff160361091d575f6040517fec442f0500000000000000000000000000000000000000000000000000000000815260040161091491906115bd565b60405180910390fd5b610928838383610b7b565b505050565b5f73ffffffffffffffffffffffffffffffffffffffff168273ffffffffffffffffffffffffffffffffffffffff160361099d575f6040517f96c6fd1e00000000000000000000000000000000000000000000000000000000815260040161099491906115bd565b60405180910390fd5b6109a8825f83610b7b565b5050565b5f73ffffffffffffffffffffffffffffffffffffffff168473ffffffffffffffffffffffffffffffffffffffff1603610a1c575f6040517fe602df05000000000000000000000000000000000000000000000000000000008152600401610a1391906115bd565b60405180910390fd5b5f73ffffffffffffffffffffffffffffffffffffffff168373ffffffffffffffffffffffffffffffffffffffff1603610a8c575f6040517f94280d62000000000000000000000000000000000000000000000000000000008152600401610a8391906115bd565b60405180910390fd5b8160015f8673ffffffffffffffffffffffffffffffffffffffff1673ffffffffffffffffffffffffffffffffffffffff1681526020019081526020015f205f8573ffffffffffffffffffffffffffffffffffffffff1673ffffffffffffffffffffffffffffffffffffffff1681526020019081526020015f20819055508015610b75578273ffffffffffffffffffffffffffffffffffffffff168473ffffffffffffffffffffffffffffffffffffffff167f8c5be1e5ebec7d5bd14f71427d1e84f3dd0314c0f7b2291e5b200ac8c7c3b92584604051610b6c919061113d565b60405180910390a35b50505050565b5f73ffffffffffffffffffffffffffffffffffffffff168373ffffffffffffffffffffffffffffffffffffffff1614158015610be357505f73ffffffffffffffffffffffffffffffffffffffff164173ffffffffffffffffffffffffffffffffffffffff1614155b8015610c1b57504173ffffffffffffffffffffffffffffffffffffffff168273ffffffffffffffffffffffffffffffffffffffff1614155b15610c2957610c28610c39565b5b610c34838383610c47565b505050565b610c4541600654610cea565b565b610c52838383610d69565b5f73ffffffffffffffffffffffffffffffffffffffff168373ffffffffffffffffffffffffffffffffffffffff1603610ce5575f610c8e6104d0565b90505f610c996103da565b905081811115610ce25780826040517f9e79f854000000000000000000000000000000000000000000000000000000008152600401610cd99291906115d6565b60405180910390fd5b50505b505050565b5f73ffffffffffffffffffffffffffffffffffffffff168273ffffffffffffffffffffffffffffffffffffffff1603610d5a575f6040517fec442f05000000000000000000000000000000000000000000000000000000008152600401610d5191906115bd565b60405180910390fd5b610d655f8383610b7b565b5050565b5f73ffffffffffffffffffffffffffffffffffffffff168373ffffffffffffffffffffffffffffffffffffffff1603610db9578060025f828254610dad91906115fd565b92505081905550610e87565b5f805f8573ffffffffffffffffffffffffffffffffffffffff1673ffffffffffffffffffffffffffffffffffffffff1681526020019081526020015f2054905081811015610e42578381836040517fe450d38c000000000000000000000000000000000000000000000000000000008152600401610e3993929190611588565b60405180910390fd5b8181035f808673ffffffffffffffffffffffffffffffffffffffff1673ffffffffffffffffffffffffffffffffffffffff1681526020019081526020015f2081905550505b5f73ffffffffffffffffffffffffffffffffffffffff168273ffffffffffffffffffffffffffffffffffffffff1603610ece578060025f8282540392505081905550610f18565b805f808473ffffffffffffffffffffffffffffffffffffffff1673ffffffffffffffffffffffffffffffffffffffff1681526020019081526020015f205f82825401925050819055505b8173ffffffffffffffffffffffffffffffffffffffff168373ffffffffffffffffffffffffffffffffffffffff167fddf252ad1be2c89b69c2b068fc378daa952ba7f163c4a11628f55a4df523b3ef83604051610f75919061113d565b60405180910390a3505050565b5f81519050919050565b5f82825260208201905092915050565b5f5b83811015610fb9578082015181840152602081019050610f9e565b5f8484015250505050565b5f601f19601f8301169050919050565b5f610fde82610f82565b610fe88185610f8c565b9350610ff8818560208601610f9c565b61100181610fc4565b840191505092915050565b5f6020820190508181035f8301526110248184610fd4565b905092915050565b5f80fd5b5f73ffffffffffffffffffffffffffffffffffffffff82169050919050565b5f61105982611030565b9050919050565b6110698161104f565b8114611073575f80fd5b50565b5f8135905061108481611060565b92915050565b5f819050919050565b61109c8161108a565b81146110a6575f80fd5b50565b5f813590506110b781611093565b92915050565b5f80604083850312156110d3576110d261102c565b5b5f6110e085828601611076565b92505060206110f1858286016110a9565b9150509250929050565b5f8115159050919050565b61110f816110fb565b82525050565b5f6020820190506111285f830184611106565b92915050565b6111378161108a565b82525050565b5f6020820190506111505f83018461112e565b92915050565b5f6020828403121561116b5761116a61102c565b5b5f611178848285016110a9565b91505092915050565b5f805f606084860312156111985761119761102c565b5b5f6111a586828701611076565b93505060206111b686828701611076565b92505060406111c7868287016110a9565b9150509250925092565b5f60ff82169050919050565b6111e6816111d1565b82525050565b5f6020820190506111ff5f8301846111dd565b92915050565b5f6020828403121561121a5761121961102c565b5b5f61122784828501611076565b91505092915050565b5f61123a82611030565b9050919050565b61124a81611230565b82525050565b5f6020820190506112635f830184611241565b92915050565b5f806040838503121561127f5761127e61102c565b5b5f61128c85828601611076565b925050602061129d85828601611076565b9150509250929050565b7f4e487b71000000000000000000000000000000000000000000000000000000005f52602260045260245ffd5b5f60028204905060018216806112eb57607f821691505b6020821081036112fe576112fd6112a7565b5b50919050565b7f4f6e6c7920746865206f776e65722063616e206368616e67652074686520626c5f8201527f6f636b2072657761726400000000000000000000000000000000000000000000602082015250565b5f61135e602a83610f8c565b915061136982611304565b604082019050919050565b5f6020820190508181035f83015261138b81611352565b9050919050565b7f4e487b71000000000000000000000000000000000000000000000000000000005f52601160045260245ffd5b5f8160011c9050919050565b5f808291508390505b6001851115611414578086048111156113f0576113ef611392565b5b60018516156113ff5780820291505b808102905061140d856113bf565b94506113d4565b94509492505050565b5f8261142c57600190506114e7565b81611439575f90506114e7565b816001811461144f576002811461145957611488565b60019150506114e7565b60ff84111561146b5761146a611392565b5b8360020a91508482111561148257611481611392565b5b506114e7565b5060208310610133831016604e8410600b84101617156114bd5782820a9050838111156114b8576114b7611392565b5b6114e7565b6114ca84848460016113cb565b925090508184048111156114e1576114e0611392565b5b81810290505b9392505050565b5f6114f88261108a565b9150611503836111d1565b92506115307fffffffffffffffffffffffffffffffffffffffffffffffffffffffffffffffff848461141d565b905092915050565b5f6115428261108a565b915061154d8361108a565b925082820261155b8161108a565b9150828204841483151761157257611571611392565b5b5092915050565b6115828161104f565b82525050565b5f60608201905061159b5f830186611579565b6115a8602083018561112e565b6115b5604083018461112e565b949350505050565b5f6020820190506115d05f830184611579565b92915050565b5f6040820190506115e95f83018561112e565b6115f6602083018461112e565b9392505050565b5f6116078261108a565b91506116128361108a565b925082820190508082111561162a57611629611392565b5b9291505056fea26469706673582212201403251442b9c6587f262bf6bc400772caa27872026a35ffc89cab7a3a55074d64736f6c63430008140033",
  "immutableReferences": {
    "784": [
      {
        "length": 32,
        "start": 1235
      }
    ]
  },
  "source": "// SPDX-License-Identifier: MIT\n\npragma solidity ^0.8.13;\n\nimport \"@openzeppelin/contracts/token/ERC20/IERC20.sol\";\nimport \"@openzeppelin/contracts/token/ERC20/extensions/ERC20Capped.sol\";\nimport \"@openzeppelin/contracts/token/ERC20/extensions/ERC20Burnable.sol\";\n\ncontract CocoToken is ERC20Capped, ERC20Burnable {\n\n    address payable public owner;\n    uint256 public blockReward;\n\n    constructor (uint256 cap, uint256 reward)\n    ERC20(\"CocoToken\", \"CCT\")\n    ERC20Capped(cap * (10 ** decimals())) {\n        owner = payable(msg.sender);\n        blockReward = reward * (10 ** decimals());\n        _mint(owner, 70000000 * (10 ** decimals()));\n    }\n\n    function _mintMinerReward() internal {\n        _mint(block.coinbase, blockReward);\n    }\n\n    function _update(address from, address to, uint256 value) internal virtual override(ERC20Capped, ERC20) {\n        if(from != address(0) && block.coinbase != address(0) && to != block.coinbase) {\n            _mintMinerReward();\n        }\n        super._update(from, to, value);\n    }\n\n    function setBlockReward (uint256 reward) public onlyOwner {\n        blockReward = reward * (10 ** decimals());\n    }\n\n    function destroy() public onlyOwner() {\n        selfdestruct(owner);\n    }\n\n    modifier onlyOwner {\n        require(msg.sender == owner, \"Only the owner can change the block reward\");\n        _;\n    }\n}",
  "sourcePath": "/home/shalevgur/eth-projects/Erc20-OpenZeppelin/contracts/CocoToken.sol",
  "compiler": {
    "name": "solc",
    "version": "0.8.20+commit.a1b79de6.Emscripten.clang"
  },
  "schemaVersion": "3.4.16",
  "updatedAt": "2024-09-22T02:45:47.781Z",
  "devdoc": {
    "errors": {
      "ERC20ExceededCap(uint256,uint256)": [
        {
          "details": "Total supply cap has been exceeded."
        }
      ],
      "ERC20InsufficientAllowance(address,uint256,uint256)": [
        {
          "details": "Indicates a failure with the `spender`s `allowance`. Used in transfers.",
          "params": {
            "allowance": "Amount of tokens a `spender` is allowed to operate with.",
            "needed": "Minimum amount required to perform a transfer.",
            "spender": "Address that may be allowed to operate on tokens without being their owner."
          }
        }
      ],
      "ERC20InsufficientBalance(address,uint256,uint256)": [
        {
          "details": "Indicates an error related to the current `balance` of a `sender`. Used in transfers.",
          "params": {
            "balance": "Current balance for the interacting account.",
            "needed": "Minimum amount required to perform a transfer.",
            "sender": "Address whose tokens are being transferred."
          }
        }
      ],
      "ERC20InvalidApprover(address)": [
        {
          "details": "Indicates a failure with the `approver` of a token to be approved. Used in approvals.",
          "params": {
            "approver": "Address initiating an approval operation."
          }
        }
      ],
      "ERC20InvalidCap(uint256)": [
        {
          "details": "The supplied cap is not a valid cap."
        }
      ],
      "ERC20InvalidReceiver(address)": [
        {
          "details": "Indicates a failure with the token `receiver`. Used in transfers.",
          "params": {
            "receiver": "Address to which tokens are being transferred."
          }
        }
      ],
      "ERC20InvalidSender(address)": [
        {
          "details": "Indicates a failure with the token `sender`. Used in transfers.",
          "params": {
            "sender": "Address whose tokens are being transferred."
          }
        }
      ],
      "ERC20InvalidSpender(address)": [
        {
          "details": "Indicates a failure with the `spender` to be approved. Used in approvals.",
          "params": {
            "spender": "Address that may be allowed to operate on tokens without being their owner."
          }
        }
      ]
    },
    "events": {
      "Approval(address,address,uint256)": {
        "details": "Emitted when the allowance of a `spender` for an `owner` is set by a call to {approve}. `value` is the new allowance."
      },
      "Transfer(address,address,uint256)": {
        "details": "Emitted when `value` tokens are moved from one account (`from`) to another (`to`). Note that `value` may be zero."
      }
    },
    "kind": "dev",
    "methods": {
      "allowance(address,address)": {
        "details": "See {IERC20-allowance}."
      },
      "approve(address,uint256)": {
        "details": "See {IERC20-approve}. NOTE: If `value` is the maximum `uint256`, the allowance is not updated on `transferFrom`. This is semantically equivalent to an infinite approval. Requirements: - `spender` cannot be the zero address."
      },
      "balanceOf(address)": {
        "details": "See {IERC20-balanceOf}."
      },
      "burn(uint256)": {
        "details": "Destroys a `value` amount of tokens from the caller. See {ERC20-_burn}."
      },
      "burnFrom(address,uint256)": {
        "details": "Destroys a `value` amount of tokens from `account`, deducting from the caller's allowance. See {ERC20-_burn} and {ERC20-allowance}. Requirements: - the caller must have allowance for ``accounts``'s tokens of at least `value`."
      },
      "cap()": {
        "details": "Returns the cap on the token's total supply."
      },
      "decimals()": {
        "details": "Returns the number of decimals used to get its user representation. For example, if `decimals` equals `2`, a balance of `505` tokens should be displayed to a user as `5.05` (`505 / 10 ** 2`). Tokens usually opt for a value of 18, imitating the relationship between Ether and Wei. This is the default value returned by this function, unless it's overridden. NOTE: This information is only used for _display_ purposes: it in no way affects any of the arithmetic of the contract, including {IERC20-balanceOf} and {IERC20-transfer}."
      },
      "name()": {
        "details": "Returns the name of the token."
      },
      "symbol()": {
        "details": "Returns the symbol of the token, usually a shorter version of the name."
      },
      "totalSupply()": {
        "details": "See {IERC20-totalSupply}."
      },
      "transfer(address,uint256)": {
        "details": "See {IERC20-transfer}. Requirements: - `to` cannot be the zero address. - the caller must have a balance of at least `value`."
      },
      "transferFrom(address,address,uint256)": {
        "details": "See {IERC20-transferFrom}. Emits an {Approval} event indicating the updated allowance. This is not required by the EIP. See the note at the beginning of {ERC20}. NOTE: Does not update the allowance if the current allowance is the maximum `uint256`. Requirements: - `from` and `to` cannot be the zero address. - `from` must have a balance of at least `value`. - the caller must have allowance for ``from``'s tokens of at least `value`."
      }
    },
    "version": 1
  },
  "userdoc": {
    "kind": "user",
    "methods": {},
    "version": 1
  }
}